{
  "_format": "hh-sol-artifact-1",
  "contractName": "OzcarEscrow",
  "sourceName": "contracts/OzcarEscrow.sol",
  "abi": [
    {
      "inputs": [
        {
          "internalType": "address",
          "name": "initialOwner",
          "type": "address"
        },
        {
          "internalType": "address",
          "name": "_paymentToken",
          "type": "address"
        }
      ],
      "stateMutability": "nonpayable",
      "type": "constructor"
    },
    {
      "inputs": [
        {
          "internalType": "address",
          "name": "owner",
          "type": "address"
        }
      ],
      "name": "OwnableInvalidOwner",
      "type": "error"
    },
    {
      "inputs": [
        {
          "internalType": "address",
          "name": "account",
          "type": "address"
        }
      ],
      "name": "OwnableUnauthorizedAccount",
      "type": "error"
    },
    {
      "anonymous": false,
      "inputs": [
        {
          "indexed": true,
          "internalType": "uint256",
          "name": "escrowId",
          "type": "uint256"
        }
      ],
      "name": "DeliveryConfirmed",
      "type": "event"
    },
    {
      "anonymous": false,
      "inputs": [
        {
          "indexed": true,
          "internalType": "uint256",
          "name": "escrowId",
          "type": "uint256"
        },
        {
          "indexed": false,
          "internalType": "uint256",
          "name": "amount",
          "type": "uint256"
        }
      ],
      "name": "Deposited",
      "type": "event"
    },
    {
      "anonymous": false,
      "inputs": [
        {
          "indexed": true,
          "internalType": "uint256",
          "name": "escrowId",
          "type": "uint256"
        }
      ],
      "name": "DisputeRaised",
      "type": "event"
    },
    {
      "anonymous": false,
      "inputs": [
        {
          "indexed": true,
          "internalType": "uint256",
          "name": "escrowId",
          "type": "uint256"
        },
        {
          "indexed": false,
          "internalType": "address",
          "name": "buyer",
          "type": "address"
        },
        {
          "indexed": false,
          "internalType": "address",
          "name": "seller",
          "type": "address"
        },
        {
          "indexed": false,
          "internalType": "uint256",
          "name": "tokenId",
          "type": "uint256"
        },
        {
          "indexed": false,
          "internalType": "uint256",
          "name": "price",
          "type": "uint256"
        }
      ],
      "name": "EscrowCreated",
      "type": "event"
    },
    {
      "anonymous": false,
      "inputs": [
        {
          "indexed": true,
          "internalType": "uint256",
          "name": "escrowId",
          "type": "uint256"
        },
        {
          "indexed": false,
          "internalType": "address",
          "name": "seller",
          "type": "address"
        },
        {
          "indexed": false,
          "internalType": "uint256",
          "name": "amount",
          "type": "uint256"
        }
      ],
      "name": "FundsReleased",
      "type": "event"
    },
    {
      "anonymous": false,
      "inputs": [
        {
          "indexed": true,
          "internalType": "address",
          "name": "previousOwner",
          "type": "address"
        },
        {
          "indexed": true,
          "internalType": "address",
          "name": "newOwner",
          "type": "address"
        }
      ],
      "name": "OwnershipTransferred",
      "type": "event"
    },
    {
      "inputs": [
        {
          "internalType": "uint256",
          "name": "_escrowId",
          "type": "uint256"
        }
      ],
      "name": "confirmDelivery",
      "outputs": [],
      "stateMutability": "nonpayable",
      "type": "function"
    },
    {
      "inputs": [
        {
          "internalType": "address",
          "name": "_nftContract",
          "type": "address"
        },
        {
          "internalType": "uint256",
          "name": "_tokenId",
          "type": "uint256"
        },
        {
          "internalType": "address",
          "name": "_buyer",
          "type": "address"
        },
        {
          "internalType": "uint256",
          "name": "_price",
          "type": "uint256"
        }
      ],
      "name": "createEscrow",
      "outputs": [
        {
          "internalType": "uint256",
          "name": "",
          "type": "uint256"
        }
      ],
      "stateMutability": "nonpayable",
      "type": "function"
    },
    {
      "inputs": [
        {
          "internalType": "uint256",
          "name": "_escrowId",
          "type": "uint256"
        }
      ],
      "name": "deposit",
      "outputs": [],
      "stateMutability": "payable",
      "type": "function"
    },
    {
      "inputs": [
        {
          "internalType": "uint256",
          "name": "",
          "type": "uint256"
        }
      ],
      "name": "escrows",
      "outputs": [
        {
          "internalType": "uint256",
          "name": "escrowId",
          "type": "uint256"
        },
        {
          "internalType": "address",
          "name": "buyer",
          "type": "address"
        },
        {
          "internalType": "address",
          "name": "seller",
          "type": "address"
        },
        {
          "internalType": "address",
          "name": "nftContract",
          "type": "address"
        },
        {
          "internalType": "uint256",
          "name": "tokenId",
          "type": "uint256"
        },
        {
          "internalType": "uint256",
          "name": "price",
          "type": "uint256"
        },
        {
          "internalType": "enum OzcarEscrow.State",
          "name": "state",
          "type": "uint8"
        },
        {
          "internalType": "bool",
          "name": "isFunded",
          "type": "bool"
        }
      ],
      "stateMutability": "view",
      "type": "function"
    },
    {
      "inputs": [],
      "name": "nextEscrowId",
      "outputs": [
        {
          "internalType": "uint256",
          "name": "",
          "type": "uint256"
        }
      ],
      "stateMutability": "view",
      "type": "function"
    },
    {
      "inputs": [],
      "name": "owner",
      "outputs": [
        {
          "internalType": "address",
          "name": "",
          "type": "address"
        }
      ],
      "stateMutability": "view",
      "type": "function"
    },
    {
      "inputs": [],
      "name": "paymentToken",
      "outputs": [
        {
          "internalType": "contract IERC20",
          "name": "",
          "type": "address"
        }
      ],
      "stateMutability": "view",
      "type": "function"
    },
    {
      "inputs": [
        {
          "internalType": "uint256",
          "name": "_escrowId",
          "type": "uint256"
        }
      ],
      "name": "raiseDispute",
      "outputs": [],
      "stateMutability": "nonpayable",
      "type": "function"
    },
    {
      "inputs": [],
      "name": "renounceOwnership",
      "outputs": [],
      "stateMutability": "nonpayable",
      "type": "function"
    },
    {
      "inputs": [
        {
          "internalType": "uint256",
          "name": "_escrowId",
          "type": "uint256"
        },
        {
          "internalType": "bool",
          "name": "refundBuyer",
          "type": "bool"
        }
      ],
      "name": "resolveDispute",
      "outputs": [],
      "stateMutability": "nonpayable",
      "type": "function"
    },
    {
      "inputs": [
        {
          "internalType": "address",
          "name": "newOwner",
          "type": "address"
        }
      ],
      "name": "transferOwnership",
      "outputs": [],
      "stateMutability": "nonpayable",
      "type": "function"
    }
  ],
  "bytecode": "0x60806040523480156200001157600080fd5b506040516200221738038062002217833981810160405281019062000037919062000236565b81600073ffffffffffffffffffffffffffffffffffffffff168173ffffffffffffffffffffffffffffffffffffffff1603620000ad5760006040517f1e4fbdf7000000000000000000000000000000000000000000000000000000008152600401620000a491906200028e565b60405180910390fd5b620000be816200010860201b60201c565b5080600160006101000a81548173ffffffffffffffffffffffffffffffffffffffff021916908373ffffffffffffffffffffffffffffffffffffffff1602179055505050620002ab565b60008060009054906101000a900473ffffffffffffffffffffffffffffffffffffffff169050816000806101000a81548173ffffffffffffffffffffffffffffffffffffffff021916908373ffffffffffffffffffffffffffffffffffffffff1602179055508173ffffffffffffffffffffffffffffffffffffffff168173ffffffffffffffffffffffffffffffffffffffff167f8be0079c531659141344cd1fd0a4f28419497f9722a3daafe3b4186f6b6457e060405160405180910390a35050565b600080fd5b600073ffffffffffffffffffffffffffffffffffffffff82169050919050565b6000620001fe82620001d1565b9050919050565b6200021081620001f1565b81146200021c57600080fd5b50565b600081519050620002308162000205565b92915050565b6000806040838503121562000250576200024f620001cc565b5b600062000260858286016200021f565b925050602062000273858286016200021f565b9150509250929050565b6200028881620001f1565b82525050565b6000602082019050620002a560008301846200027d565b92915050565b611f5c80620002bb6000396000f3fe60806040526004361061009c5760003560e01c806389cb29dd1161006457806389cb29dd1461018d5780638da5cb5b146101b8578063a5c1674e146101e3578063b6b55f251461020c578063f2fde38b14610228578063fd84cb97146102515761009c565b8063012f52ee146100a15780633013ce29146100e557806334b25ee214610110578063694ebe0514610139578063715018a614610176575b600080fd5b3480156100ad57600080fd5b506100c860048036038101906100c39190611640565b61027a565b6040516100dc98979695949392919061174f565b60405180910390f35b3480156100f157600080fd5b506100fa61033c565b604051610107919061182c565b60405180910390f35b34801561011c57600080fd5b5061013760048036038101906101329190611873565b610362565b005b34801561014557600080fd5b50610160600480360381019061015b91906118df565b610767565b60405161016d9190611946565b60405180910390f35b34801561018257600080fd5b5061018b610aa5565b005b34801561019957600080fd5b506101a2610ab9565b6040516101af9190611946565b60405180910390f35b3480156101c457600080fd5b506101cd610abf565b6040516101da9190611961565b60405180910390f35b3480156101ef57600080fd5b5061020a60048036038101906102059190611640565b610ae8565b005b61022660048036038101906102219190611640565b610cf4565b005b34801561023457600080fd5b5061024f600480360381019061024a919061197c565b61103b565b005b34801561025d57600080fd5b5061027860048036038101906102739190611640565b6110c1565b005b60036020528060005260406000206000915090508060000154908060010160009054906101000a900473ffffffffffffffffffffffffffffffffffffffff16908060020160009054906101000a900473ffffffffffffffffffffffffffffffffffffffff16908060030160009054906101000a900473ffffffffffffffffffffffffffffffffffffffff16908060040154908060050154908060060160009054906101000a900460ff16908060060160019054906101000a900460ff16905088565b600160009054906101000a900473ffffffffffffffffffffffffffffffffffffffff1681565b61036a6114b2565b8160038060048111156103805761037f6116bd565b5b6003600084815260200190815260200160002060060160009054906101000a900460ff1660048111156103b6576103b56116bd565b5b146103f6576040517f08c379a00000000000000000000000000000000000000000000000000000000081526004016103ed90611a06565b60405180910390fd5b6000600360008681526020019081526020016000209050831561054c5760048160060160006101000a81548160ff0219169083600481111561043b5761043a6116bd565b5b0217905550600160009054906101000a900473ffffffffffffffffffffffffffffffffffffffff1673ffffffffffffffffffffffffffffffffffffffff1663a9059cbb8260010160009054906101000a900473ffffffffffffffffffffffffffffffffffffffff1683600501546040518363ffffffff1660e01b81526004016104c5929190611a26565b6020604051808303816000875af11580156104e4573d6000803e3d6000fd5b505050506040513d601f19601f820116820180604052508101906105089190611a64565b610547576040517f08c379a000000000000000000000000000000000000000000000000000000000815260040161053e90611add565b60405180910390fd5b610760565b60028160060160006101000a81548160ff02191690836004811115610574576105736116bd565b5b0217905550600160009054906101000a900473ffffffffffffffffffffffffffffffffffffffff1673ffffffffffffffffffffffffffffffffffffffff1663a9059cbb8260020160009054906101000a900473ffffffffffffffffffffffffffffffffffffffff1683600501546040518363ffffffff1660e01b81526004016105fe929190611a26565b6020604051808303816000875af115801561061d573d6000803e3d6000fd5b505050506040513d601f19601f820116820180604052508101906106419190611a64565b610680576040517f08c379a000000000000000000000000000000000000000000000000000000000815260040161067790611b49565b60405180910390fd5b8060030160009054906101000a900473ffffffffffffffffffffffffffffffffffffffff1673ffffffffffffffffffffffffffffffffffffffff166323b872dd8260020160009054906101000a900473ffffffffffffffffffffffffffffffffffffffff168360010160009054906101000a900473ffffffffffffffffffffffffffffffffffffffff1684600401546040518463ffffffff1660e01b815260040161072d93929190611b69565b600060405180830381600087803b15801561074757600080fd5b505af115801561075b573d6000803e3d6000fd5b505050505b5050505050565b6000808590503373ffffffffffffffffffffffffffffffffffffffff168173ffffffffffffffffffffffffffffffffffffffff16636352211e876040518263ffffffff1660e01b81526004016107bd9190611946565b602060405180830381865afa1580156107da573d6000803e3d6000fd5b505050506040513d601f19601f820116820180604052508101906107fe9190611bb5565b73ffffffffffffffffffffffffffffffffffffffff1614610854576040517f08c379a000000000000000000000000000000000000000000000000000000000815260040161084b90611c2e565b60405180910390fd5b60006002600081548092919061086990611c7d565b9190505590506040518061010001604052808281526020018673ffffffffffffffffffffffffffffffffffffffff1681526020013373ffffffffffffffffffffffffffffffffffffffff1681526020018873ffffffffffffffffffffffffffffffffffffffff168152602001878152602001858152602001600060048111156108f5576108f46116bd565b5b815260200160001515815250600360008381526020019081526020016000206000820151816000015560208201518160010160006101000a81548173ffffffffffffffffffffffffffffffffffffffff021916908373ffffffffffffffffffffffffffffffffffffffff16021790555060408201518160020160006101000a81548173ffffffffffffffffffffffffffffffffffffffff021916908373ffffffffffffffffffffffffffffffffffffffff16021790555060608201518160030160006101000a81548173ffffffffffffffffffffffffffffffffffffffff021916908373ffffffffffffffffffffffffffffffffffffffff1602179055506080820151816004015560a0820151816005015560c08201518160060160006101000a81548160ff02191690836004811115610a3257610a316116bd565b5b021790555060e08201518160060160016101000a81548160ff021916908315150217905550905050807f59e4b8728799382406714f1c57de5c893d2772f9a8bf9950c5afe4397e64865486338988604051610a909493929190611cc5565b60405180910390a28092505050949350505050565b610aad6114b2565b610ab76000611539565b565b60025481565b60008060009054906101000a900473ffffffffffffffffffffffffffffffffffffffff16905090565b806001806004811115610afe57610afd6116bd565b5b6003600084815260200190815260200160002060060160009054906101000a900460ff166004811115610b3457610b336116bd565b5b14610b74576040517f08c379a0000000000000000000000000000000000000000000000000000000008152600401610b6b90611a06565b60405180910390fd5b6003600084815260200190815260200160002060010160009054906101000a900473ffffffffffffffffffffffffffffffffffffffff1673ffffffffffffffffffffffffffffffffffffffff163373ffffffffffffffffffffffffffffffffffffffff161480610c4557506003600084815260200190815260200160002060020160009054906101000a900473ffffffffffffffffffffffffffffffffffffffff1673ffffffffffffffffffffffffffffffffffffffff163373ffffffffffffffffffffffffffffffffffffffff16145b610c84576040517f08c379a0000000000000000000000000000000000000000000000000000000008152600401610c7b90611d56565b60405180910390fd5b600380600085815260200190815260200160002060060160006101000a81548160ff02191690836004811115610cbd57610cbc6116bd565b5b0217905550827f04901f83201c8724eadf084436db8aa391820bae6d11f9f78a17edb6f2eef3cf60405160405180910390a2505050565b806000806004811115610d0a57610d096116bd565b5b6003600084815260200190815260200160002060060160009054906101000a900460ff166004811115610d4057610d3f6116bd565b5b14610d80576040517f08c379a0000000000000000000000000000000000000000000000000000000008152600401610d7790611a06565b60405180910390fd5b6000600360008581526020019081526020016000209050600073ffffffffffffffffffffffffffffffffffffffff168160010160009054906101000a900473ffffffffffffffffffffffffffffffffffffffff1673ffffffffffffffffffffffffffffffffffffffff1614610e86578060010160009054906101000a900473ffffffffffffffffffffffffffffffffffffffff1673ffffffffffffffffffffffffffffffffffffffff163373ffffffffffffffffffffffffffffffffffffffff1614610e81576040517f08c379a0000000000000000000000000000000000000000000000000000000008152600401610e7890611dc2565b60405180910390fd5b610eca565b338160010160006101000a81548173ffffffffffffffffffffffffffffffffffffffff021916908373ffffffffffffffffffffffffffffffffffffffff1602179055505b600160009054906101000a900473ffffffffffffffffffffffffffffffffffffffff1673ffffffffffffffffffffffffffffffffffffffff166323b872dd333084600501546040518463ffffffff1660e01b8152600401610f2d93929190611b69565b6020604051808303816000875af1158015610f4c573d6000803e3d6000fd5b505050506040513d601f19601f82011682018060405250810190610f709190611a64565b610faf576040517f08c379a0000000000000000000000000000000000000000000000000000000008152600401610fa690611e2e565b60405180910390fd5b60018160060160016101000a81548160ff02191690831515021790555060018160060160006101000a81548160ff02191690836004811115610ff457610ff36116bd565b5b0217905550837f06da3309189fa49284f335d2c2bcb4cb0b8ad2a59ad92a9bdebeeb8f1ceba511826005015460405161102d9190611946565b60405180910390a250505050565b6110436114b2565b600073ffffffffffffffffffffffffffffffffffffffff168173ffffffffffffffffffffffffffffffffffffffff16036110b55760006040517f1e4fbdf70000000000000000000000000000000000000000000000000000000081526004016110ac9190611961565b60405180910390fd5b6110be81611539565b50565b806003600082815260200190815260200160002060010160009054906101000a900473ffffffffffffffffffffffffffffffffffffffff1673ffffffffffffffffffffffffffffffffffffffff163373ffffffffffffffffffffffffffffffffffffffff1614611166576040517f08c379a000000000000000000000000000000000000000000000000000000000815260040161115d90611e9a565b60405180910390fd5b81600180600481111561117c5761117b6116bd565b5b6003600084815260200190815260200160002060060160009054906101000a900460ff1660048111156111b2576111b16116bd565b5b146111f2576040517f08c379a00000000000000000000000000000000000000000000000000000000081526004016111e990611a06565b60405180910390fd5b600060036000868152602001908152602001600020905060028160060160006101000a81548160ff02191690836004811115611231576112306116bd565b5b0217905550600160009054906101000a900473ffffffffffffffffffffffffffffffffffffffff1673ffffffffffffffffffffffffffffffffffffffff1663a9059cbb8260020160009054906101000a900473ffffffffffffffffffffffffffffffffffffffff1683600501546040518363ffffffff1660e01b81526004016112bb929190611a26565b6020604051808303816000875af11580156112da573d6000803e3d6000fd5b505050506040513d601f19601f820116820180604052508101906112fe9190611a64565b61133d576040517f08c379a000000000000000000000000000000000000000000000000000000000815260040161133490611f06565b60405180910390fd5b8060030160009054906101000a900473ffffffffffffffffffffffffffffffffffffffff1673ffffffffffffffffffffffffffffffffffffffff166323b872dd8260020160009054906101000a900473ffffffffffffffffffffffffffffffffffffffff168360010160009054906101000a900473ffffffffffffffffffffffffffffffffffffffff1684600401546040518463ffffffff1660e01b81526004016113ea93929190611b69565b600060405180830381600087803b15801561140457600080fd5b505af1158015611418573d6000803e3d6000fd5b50505050847f375b4005eeae25d0e37d56e1b3841d3bb394b277efa2548de3293f5dcb7a349360405160405180910390a2847f6e3c6096795c8298a218b2cfb8bde42726ff7c9a3d27b4d3ba41ab7f74feb5fb8260020160009054906101000a900473ffffffffffffffffffffffffffffffffffffffff1683600501546040516114a3929190611a26565b60405180910390a25050505050565b6114ba6115fd565b73ffffffffffffffffffffffffffffffffffffffff166114d8610abf565b73ffffffffffffffffffffffffffffffffffffffff1614611537576114fb6115fd565b6040517f118cdaa700000000000000000000000000000000000000000000000000000000815260040161152e9190611961565b60405180910390fd5b565b60008060009054906101000a900473ffffffffffffffffffffffffffffffffffffffff169050816000806101000a81548173ffffffffffffffffffffffffffffffffffffffff021916908373ffffffffffffffffffffffffffffffffffffffff1602179055508173ffffffffffffffffffffffffffffffffffffffff168173ffffffffffffffffffffffffffffffffffffffff167f8be0079c531659141344cd1fd0a4f28419497f9722a3daafe3b4186f6b6457e060405160405180910390a35050565b600033905090565b600080fd5b6000819050919050565b61161d8161160a565b811461162857600080fd5b50565b60008135905061163a81611614565b92915050565b60006020828403121561165657611655611605565b5b60006116648482850161162b565b91505092915050565b6116768161160a565b82525050565b600073ffffffffffffffffffffffffffffffffffffffff82169050919050565b60006116a78261167c565b9050919050565b6116b78161169c565b82525050565b7f4e487b7100000000000000000000000000000000000000000000000000000000600052602160045260246000fd5b600581106116fd576116fc6116bd565b5b50565b600081905061170e826116ec565b919050565b600061171e82611700565b9050919050565b61172e81611713565b82525050565b60008115159050919050565b61174981611734565b82525050565b600061010082019050611765600083018b61166d565b611772602083018a6116ae565b61177f60408301896116ae565b61178c60608301886116ae565b611799608083018761166d565b6117a660a083018661166d565b6117b360c0830185611725565b6117c060e0830184611740565b9998505050505050505050565b6000819050919050565b60006117f26117ed6117e88461167c565b6117cd565b61167c565b9050919050565b6000611804826117d7565b9050919050565b6000611816826117f9565b9050919050565b6118268161180b565b82525050565b6000602082019050611841600083018461181d565b92915050565b61185081611734565b811461185b57600080fd5b50565b60008135905061186d81611847565b92915050565b6000806040838503121561188a57611889611605565b5b60006118988582860161162b565b92505060206118a98582860161185e565b9150509250929050565b6118bc8161169c565b81146118c757600080fd5b50565b6000813590506118d9816118b3565b92915050565b600080600080608085870312156118f9576118f8611605565b5b6000611907878288016118ca565b94505060206119188782880161162b565b9350506040611929878288016118ca565b925050606061193a8782880161162b565b91505092959194509250565b600060208201905061195b600083018461166d565b92915050565b600060208201905061197660008301846116ae565b92915050565b60006020828403121561199257611991611605565b5b60006119a0848285016118ca565b91505092915050565b600082825260208201905092915050565b7f496e76616c696420737461746500000000000000000000000000000000000000600082015250565b60006119f0600d836119a9565b91506119fb826119ba565b602082019050919050565b60006020820190508181036000830152611a1f816119e3565b9050919050565b6000604082019050611a3b60008301856116ae565b611a48602083018461166d565b9392505050565b600081519050611a5e81611847565b92915050565b600060208284031215611a7a57611a79611605565b5b6000611a8884828501611a4f565b91505092915050565b7f526566756e64207472616e73666572206661696c656400000000000000000000600082015250565b6000611ac76016836119a9565b9150611ad282611a91565b602082019050919050565b60006020820190508181036000830152611af681611aba565b9050919050565b7f53656c6c6572207472616e73666572206661696c656400000000000000000000600082015250565b6000611b336016836119a9565b9150611b3e82611afd565b602082019050919050565b60006020820190508181036000830152611b6281611b26565b9050919050565b6000606082019050611b7e60008301866116ae565b611b8b60208301856116ae565b611b98604083018461166d565b949350505050565b600081519050611baf816118b3565b92915050565b600060208284031215611bcb57611bca611605565b5b6000611bd984828501611ba0565b91505092915050565b7f53656c6c6572206d757374206f776e207468652076656869636c650000000000600082015250565b6000611c18601b836119a9565b9150611c2382611be2565b602082019050919050565b60006020820190508181036000830152611c4781611c0b565b9050919050565b7f4e487b7100000000000000000000000000000000000000000000000000000000600052601160045260246000fd5b6000611c888261160a565b91507fffffffffffffffffffffffffffffffffffffffffffffffffffffffffffffffff8203611cba57611cb9611c4e565b5b600182019050919050565b6000608082019050611cda60008301876116ae565b611ce760208301866116ae565b611cf4604083018561166d565b611d01606083018461166d565b95945050505050565b7f4f6e6c79207061727469636970616e74732063616e2064697370757465000000600082015250565b6000611d40601d836119a9565b9150611d4b82611d0a565b602082019050919050565b60006020820190508181036000830152611d6f81611d33565b9050919050565b7f4f6e6c792061737369676e65642062757965722063616e206465706f73697400600082015250565b6000611dac601f836119a9565b9150611db782611d76565b602082019050919050565b60006020820190508181036000830152611ddb81611d9f565b9050919050565b7f5061796d656e74206661696c6564000000000000000000000000000000000000600082015250565b6000611e18600e836119a9565b9150611e2382611de2565b602082019050919050565b60006020820190508181036000830152611e4781611e0b565b9050919050565b7f4f6e6c792062757965722063616e2063616c6c20746869730000000000000000600082015250565b6000611e846018836119a9565b9150611e8f82611e4e565b602082019050919050565b60006020820190508181036000830152611eb381611e77565b9050919050565b7f546f6b656e207472616e73666572206661696c65640000000000000000000000600082015250565b6000611ef06015836119a9565b9150611efb82611eba565b602082019050919050565b60006020820190508181036000830152611f1f81611ee3565b905091905056fea2646970667358221220a7cfe87a0abf6fd7d2326bd3dbe51fd86fbec96c0aec37f5eddf85ba6f2570a064736f6c63430008140033",
  "linkReferences": {},
  "deployedLinkReferences": {}
}