{
  "_format": "hh-sol-artifact-1",
  "contractName": "OzcarReputation",
  "sourceName": "contracts/OzcarReputation.sol",
  "abi": [
    {
      "inputs": [
        {
          "internalType": "address",
          "name": "initialOwner",
          "type": "address"
        }
      ],
      "stateMutability": "nonpayable",
      "type": "constructor"
    },
    {
      "inputs": [
        {
          "internalType": "address",
          "name": "owner",
          "type": "address"
        }
      ],
      "name": "OwnableInvalidOwner",
      "type": "error"
    },
    {
      "inputs": [
        {
          "internalType": "address",
          "name": "account",
          "type": "address"
        }
      ],
      "name": "OwnableUnauthorizedAccount",
      "type": "error"
    },
    {
      "anonymous": false,
      "inputs": [
        {
          "indexed": true,
          "internalType": "address",
          "name": "previousOwner",
          "type": "address"
        },
        {
          "indexed": true,
          "internalType": "address",
          "name": "newOwner",
          "type": "address"
        }
      ],
      "name": "OwnershipTransferred",
      "type": "event"
    },
    {
      "anonymous": false,
      "inputs": [
        {
          "indexed": true,
          "internalType": "address",
          "name": "technician",
          "type": "address"
        },
        {
          "indexed": false,
          "internalType": "uint256",
          "name": "newScore",
          "type": "uint256"
        }
      ],
      "name": "ReputationUpdated",
      "type": "event"
    },
    {
      "anonymous": false,
      "inputs": [
        {
          "indexed": true,
          "internalType": "address",
          "name": "technician",
          "type": "address"
        },
        {
          "indexed": false,
          "internalType": "uint256",
          "name": "severity",
          "type": "uint256"
        }
      ],
      "name": "Slashed",
      "type": "event"
    },
    {
      "inputs": [],
      "name": "MAX_STAKE_CAP",
      "outputs": [
        {
          "internalType": "uint256",
          "name": "",
          "type": "uint256"
        }
      ],
      "stateMutability": "view",
      "type": "function"
    },
    {
      "inputs": [
        {
          "internalType": "address",
          "name": "_tech",
          "type": "address"
        }
      ],
      "name": "calculateReputation",
      "outputs": [],
      "stateMutability": "nonpayable",
      "type": "function"
    },
    {
      "inputs": [],
      "name": "owner",
      "outputs": [
        {
          "internalType": "address",
          "name": "",
          "type": "address"
        }
      ],
      "stateMutability": "view",
      "type": "function"
    },
    {
      "inputs": [],
      "name": "renounceOwnership",
      "outputs": [],
      "stateMutability": "nonpayable",
      "type": "function"
    },
    {
      "inputs": [
        {
          "internalType": "address",
          "name": "_tech",
          "type": "address"
        },
        {
          "internalType": "uint256",
          "name": "_severity",
          "type": "uint256"
        }
      ],
      "name": "slash",
      "outputs": [],
      "stateMutability": "nonpayable",
      "type": "function"
    },
    {
      "inputs": [
        {
          "internalType": "address",
          "name": "",
          "type": "address"
        }
      ],
      "name": "technicians",
      "outputs": [
        {
          "internalType": "uint256",
          "name": "consistencyScore",
          "type": "uint256"
        },
        {
          "internalType": "uint256",
          "name": "participationScore",
          "type": "uint256"
        },
        {
          "internalType": "uint256",
          "name": "juryScore",
          "type": "uint256"
        },
        {
          "internalType": "uint256",
          "name": "tokenStake",
          "type": "uint256"
        },
        {
          "internalType": "uint256",
          "name": "totalReputation",
          "type": "uint256"
        },
        {
          "internalType": "bool",
          "name": "isBlacklisted",
          "type": "bool"
        }
      ],
      "stateMutability": "view",
      "type": "function"
    },
    {
      "inputs": [
        {
          "internalType": "address",
          "name": "newOwner",
          "type": "address"
        }
      ],
      "name": "transferOwnership",
      "outputs": [],
      "stateMutability": "nonpayable",
      "type": "function"
    },
    {
      "inputs": [
        {
          "internalType": "address",
          "name": "_tech",
          "type": "address"
        },
        {
          "internalType": "uint256",
          "name": "_d",
          "type": "uint256"
        },
        {
          "internalType": "uint256",
          "name": "_p",
          "type": "uint256"
        },
        {
          "internalType": "uint256",
          "name": "_j",
          "type": "uint256"
        },
        {
          "internalType": "uint256",
          "name": "_t",
          "type": "uint256"
        }
      ],
      "name": "updateStats",
      "outputs": [],
      "stateMutability": "nonpayable",
      "type": "function"
    }
  ],
  "bytecode": "0x60806040523480156200001157600080fd5b5060405162000f1c38038062000f1c8339818101604052810190620000379190620001f4565b80600073ffffffffffffffffffffffffffffffffffffffff168173ffffffffffffffffffffffffffffffffffffffff1603620000ad5760006040517f1e4fbdf7000000000000000000000000000000000000000000000000000000008152600401620000a4919062000237565b60405180910390fd5b620000be81620000c660201b60201c565b505062000254565b60008060009054906101000a900473ffffffffffffffffffffffffffffffffffffffff169050816000806101000a81548173ffffffffffffffffffffffffffffffffffffffff021916908373ffffffffffffffffffffffffffffffffffffffff1602179055508173ffffffffffffffffffffffffffffffffffffffff168173ffffffffffffffffffffffffffffffffffffffff167f8be0079c531659141344cd1fd0a4f28419497f9722a3daafe3b4186f6b6457e060405160405180910390a35050565b600080fd5b600073ffffffffffffffffffffffffffffffffffffffff82169050919050565b6000620001bc826200018f565b9050919050565b620001ce81620001af565b8114620001da57600080fd5b50565b600081519050620001ee81620001c3565b92915050565b6000602082840312156200020d576200020c6200018a565b5b60006200021d84828501620001dd565b91505092915050565b6200023181620001af565b82525050565b60006020820190506200024e600083018462000226565b92915050565b610cb880620002646000396000f3fe608060405234801561001057600080fd5b50600436106100885760003560e01c8063715018a61161005b578063715018a6146100ff5780638da5cb5b1461010957806398bf9a5d14610127578063f2fde38b1461015c57610088565b806302fb4d851461008d5780631241a45a146100a957806327c06fd5146100c55780635e06ac60146100e1575b600080fd5b6100a760048036038101906100a291906108a8565b610178565b005b6100c360048036038101906100be91906108e8565b61031d565b005b6100df60048036038101906100da9190610963565b610428565b005b6100e96105a2565b6040516100f6919061099f565b60405180910390f35b6101076105b0565b005b6101116105c4565b60405161011e91906109c9565b60405180910390f35b610141600480360381019061013c9190610963565b6105ed565b604051610153969594939291906109ff565b60405180910390f35b61017660048036038101906101719190610963565b610636565b005b6101806105c4565b73ffffffffffffffffffffffffffffffffffffffff163373ffffffffffffffffffffffffffffffffffffffff16146101ed576040517f08c379a00000000000000000000000000000000000000000000000000000000081526004016101e490610abd565b60405180910390fd5b6064811115610231576040517f08c379a000000000000000000000000000000000000000000000000000000000815260040161022890610b29565b60405180910390fd5b6000600160008473ffffffffffffffffffffffffffffffffffffffff1673ffffffffffffffffffffffffffffffffffffffff168152602001908152602001600020905060648260646102839190610b78565b82600401546102929190610bac565b61029c9190610c1d565b8160040181905550605a82106102ca5760018160050160006101000a81548160ff0219169083151502179055505b8273ffffffffffffffffffffffffffffffffffffffff167f4ed05e9673c26d2ed44f7ef6a7f2942df0ee3b5e1e17db4b99f9dcd261a339cd83604051610310919061099f565b60405180910390a2505050565b6103256105c4565b73ffffffffffffffffffffffffffffffffffffffff163373ffffffffffffffffffffffffffffffffffffffff1614610392576040517f08c379a000000000000000000000000000000000000000000000000000000000815260040161038990610abd565b60405180910390fd5b6000600160008773ffffffffffffffffffffffffffffffffffffffff1673ffffffffffffffffffffffffffffffffffffffff16815260200190815260200160002090508060050160009054906101000a900460ff16156103f25750610421565b84816000018190555083816001018190555082816002018190555081816003018190555061041f86610428565b505b5050505050565b6000600160008373ffffffffffffffffffffffffffffffffffffffff1673ffffffffffffffffffffffffffffffffffffffff168152602001908152602001600020905060006064600a83600201546104809190610bac565b601484600101546104919190610bac565b602885600001546104a29190610bac565b6104ac9190610c4e565b6104b69190610c4e565b6104c09190610c1d565b9050600060646046836104d39190610bac565b6104dd9190610c1d565b9050600069152d02c7e14af6800000606485600301546104fd9190610bac565b6105079190610c1d565b9050606481111561051757606490505b60006064601e836105289190610bac565b6105329190610c1d565b905080836105409190610c4e565b85600401819055508573ffffffffffffffffffffffffffffffffffffffff167ffc577563f1b9a0461e24abef1e1fcc0d33d3d881f20b5df6dda59de4aae2c8218660040154604051610592919061099f565b60405180910390a2505050505050565b69152d02c7e14af680000081565b6105b86106bc565b6105c26000610743565b565b60008060009054906101000a900473ffffffffffffffffffffffffffffffffffffffff16905090565b60016020528060005260406000206000915090508060000154908060010154908060020154908060030154908060040154908060050160009054906101000a900460ff16905086565b61063e6106bc565b600073ffffffffffffffffffffffffffffffffffffffff168173ffffffffffffffffffffffffffffffffffffffff16036106b05760006040517f1e4fbdf70000000000000000000000000000000000000000000000000000000081526004016106a791906109c9565b60405180910390fd5b6106b981610743565b50565b6106c4610807565b73ffffffffffffffffffffffffffffffffffffffff166106e26105c4565b73ffffffffffffffffffffffffffffffffffffffff161461074157610705610807565b6040517f118cdaa700000000000000000000000000000000000000000000000000000000815260040161073891906109c9565b60405180910390fd5b565b60008060009054906101000a900473ffffffffffffffffffffffffffffffffffffffff169050816000806101000a81548173ffffffffffffffffffffffffffffffffffffffff021916908373ffffffffffffffffffffffffffffffffffffffff1602179055508173ffffffffffffffffffffffffffffffffffffffff168173ffffffffffffffffffffffffffffffffffffffff167f8be0079c531659141344cd1fd0a4f28419497f9722a3daafe3b4186f6b6457e060405160405180910390a35050565b600033905090565b600080fd5b600073ffffffffffffffffffffffffffffffffffffffff82169050919050565b600061083f82610814565b9050919050565b61084f81610834565b811461085a57600080fd5b50565b60008135905061086c81610846565b92915050565b6000819050919050565b61088581610872565b811461089057600080fd5b50565b6000813590506108a28161087c565b92915050565b600080604083850312156108bf576108be61080f565b5b60006108cd8582860161085d565b92505060206108de85828601610893565b9150509250929050565b600080600080600060a086880312156109045761090361080f565b5b60006109128882890161085d565b955050602061092388828901610893565b945050604061093488828901610893565b935050606061094588828901610893565b925050608061095688828901610893565b9150509295509295909350565b6000602082840312156109795761097861080f565b5b60006109878482850161085d565b91505092915050565b61099981610872565b82525050565b60006020820190506109b46000830184610990565b92915050565b6109c381610834565b82525050565b60006020820190506109de60008301846109ba565b92915050565b60008115159050919050565b6109f9816109e4565b82525050565b600060c082019050610a146000830189610990565b610a216020830188610990565b610a2e6040830187610990565b610a3b6060830186610990565b610a486080830185610990565b610a5560a08301846109f0565b979650505050505050565b600082825260208201905092915050565b7f43616c6c6572206973206e6f7420617574686f72697a65640000000000000000600082015250565b6000610aa7601883610a60565b9150610ab282610a71565b602082019050919050565b60006020820190508181036000830152610ad681610a9a565b9050919050565b7f5365766572697479203e20313030000000000000000000000000000000000000600082015250565b6000610b13600e83610a60565b9150610b1e82610add565b602082019050919050565b60006020820190508181036000830152610b4281610b06565b9050919050565b7f4e487b7100000000000000000000000000000000000000000000000000000000600052601160045260246000fd5b6000610b8382610872565b9150610b8e83610872565b9250828203905081811115610ba657610ba5610b49565b5b92915050565b6000610bb782610872565b9150610bc283610872565b9250828202610bd081610872565b91508282048414831517610be757610be6610b49565b5b5092915050565b7f4e487b7100000000000000000000000000000000000000000000000000000000600052601260045260246000fd5b6000610c2882610872565b9150610c3383610872565b925082610c4357610c42610bee565b5b828204905092915050565b6000610c5982610872565b9150610c6483610872565b9250828201905080821115610c7c57610c7b610b49565b5b9291505056fea2646970667358221220f33ae66e1d0dac9bd2d97fd8ffd7967f5a5f45924f3a219e8d450c0a4950e95764736f6c63430008140033",
  "linkReferences": {},
  "deployedLinkReferences": {}
}