{
  "_format": "hh-sol-artifact-1",
  "contractName": "OzcarNFT",
  "sourceName": "contracts/OzcarNFT.sol",
  "abi": [
    {
      "inputs": [
        {
          "internalType": "address",
          "name": "initialOwner",
          "type": "address"
        }
      ],
      "stateMutability": "nonpayable",
      "type": "constructor"
    },
    {
      "inputs": [
        {
          "internalType": "address",
          "name": "sender",
          "type": "address"
        },
        {
          "internalType": "uint256",
          "name": "tokenId",
          "type": "uint256"
        },
        {
          "internalType": "address",
          "name": "owner",
          "type": "address"
        }
      ],
      "name": "ERC721IncorrectOwner",
      "type": "error"
    },
    {
      "inputs": [
        {
          "internalType": "address",
          "name": "operator",
          "type": "address"
        },
        {
          "internalType": "uint256",
          "name": "tokenId",
          "type": "uint256"
        }
      ],
      "name": "ERC721InsufficientApproval",
      "type": "error"
    },
    {
      "inputs": [
        {
          "internalType": "address",
          "name": "approver",
          "type": "address"
        }
      ],
      "name": "ERC721InvalidApprover",
      "type": "error"
    },
    {
      "inputs": [
        {
          "internalType": "address",
          "name": "operator",
          "type": "address"
        }
      ],
      "name": "ERC721InvalidOperator",
      "type": "error"
    },
    {
      "inputs": [
        {
          "internalType": "address",
          "name": "owner",
          "type": "address"
        }
      ],
      "name": "ERC721InvalidOwner",
      "type": "error"
    },
    {
      "inputs": [
        {
          "internalType": "address",
          "name": "receiver",
          "type": "address"
        }
      ],
      "name": "ERC721InvalidReceiver",
      "type": "error"
    },
    {
      "inputs": [
        {
          "internalType": "address",
          "name": "sender",
          "type": "address"
        }
      ],
      "name": "ERC721InvalidSender",
      "type": "error"
    },
    {
      "inputs": [
        {
          "internalType": "uint256",
          "name": "tokenId",
          "type": "uint256"
        }
      ],
      "name": "ERC721NonexistentToken",
      "type": "error"
    },
    {
      "inputs": [
        {
          "internalType": "address",
          "name": "owner",
          "type": "address"
        }
      ],
      "name": "OwnableInvalidOwner",
      "type": "error"
    },
    {
      "inputs": [
        {
          "internalType": "address",
          "name": "account",
          "type": "address"
        }
      ],
      "name": "OwnableUnauthorizedAccount",
      "type": "error"
    },
    {
      "anonymous": false,
      "inputs": [
        {
          "indexed": true,
          "internalType": "address",
          "name": "owner",
          "type": "address"
        },
        {
          "indexed": true,
          "internalType": "address",
          "name": "approved",
          "type": "address"
        },
        {
          "indexed": true,
          "internalType": "uint256",
          "name": "tokenId",
          "type": "uint256"
        }
      ],
      "name": "Approval",
      "type": "event"
    },
    {
      "anonymous": false,
      "inputs": [
        {
          "indexed": true,
          "internalType": "address",
          "name": "owner",
          "type": "address"
        },
        {
          "indexed": true,
          "internalType": "address",
          "name": "operator",
          "type": "address"
        },
        {
          "indexed": false,
          "internalType": "bool",
          "name": "approved",
          "type": "bool"
        }
      ],
      "name": "ApprovalForAll",
      "type": "event"
    },
    {
      "anonymous": false,
      "inputs": [
        {
          "indexed": false,
          "internalType": "uint256",
          "name": "_fromTokenId",
          "type": "uint256"
        },
        {
          "indexed": false,
          "internalType": "uint256",
          "name": "_toTokenId",
          "type": "uint256"
        }
      ],
      "name": "BatchMetadataUpdate",
      "type": "event"
    },
    {
      "anonymous": false,
      "inputs": [
        {
          "indexed": true,
          "internalType": "uint256",
          "name": "tokenId",
          "type": "uint256"
        },
        {
          "indexed": false,
          "internalType": "string",
          "name": "ipfsHash",
          "type": "string"
        },
        {
          "indexed": false,
          "internalType": "uint256",
          "name": "mileage",
          "type": "uint256"
        }
      ],
      "name": "MaintenanceRecordAdded",
      "type": "event"
    },
    {
      "anonymous": false,
      "inputs": [
        {
          "indexed": false,
          "internalType": "uint256",
          "name": "_tokenId",
          "type": "uint256"
        }
      ],
      "name": "MetadataUpdate",
      "type": "event"
    },
    {
      "anonymous": false,
      "inputs": [
        {
          "indexed": true,
          "internalType": "address",
          "name": "previousOwner",
          "type": "address"
        },
        {
          "indexed": true,
          "internalType": "address",
          "name": "newOwner",
          "type": "address"
        }
      ],
      "name": "OwnershipTransferred",
      "type": "event"
    },
    {
      "anonymous": false,
      "inputs": [
        {
          "indexed": true,
          "internalType": "address",
          "name": "from",
          "type": "address"
        },
        {
          "indexed": true,
          "internalType": "address",
          "name": "to",
          "type": "address"
        },
        {
          "indexed": true,
          "internalType": "uint256",
          "name": "tokenId",
          "type": "uint256"
        }
      ],
      "name": "Transfer",
      "type": "event"
    },
    {
      "anonymous": false,
      "inputs": [
        {
          "indexed": true,
          "internalType": "uint256",
          "name": "tokenId",
          "type": "uint256"
        },
        {
          "indexed": false,
          "internalType": "string",
          "name": "vin",
          "type": "string"
        },
        {
          "indexed": false,
          "internalType": "address",
          "name": "owner",
          "type": "address"
        }
      ],
      "name": "VehicleRegistered",
      "type": "event"
    },
    {
      "inputs": [
        {
          "internalType": "uint256",
          "name": "tokenId",
          "type": "uint256"
        },
        {
          "internalType": "string",
          "name": "ipfsHash",
          "type": "string"
        },
        {
          "internalType": "uint256",
          "name": "mileage",
          "type": "uint256"
        },
        {
          "internalType": "string",
          "name": "description",
          "type": "string"
        },
        {
          "internalType": "address",
          "name": "technician",
          "type": "address"
        }
      ],
      "name": "addMaintenanceRecord",
      "outputs": [],
      "stateMutability": "nonpayable",
      "type": "function"
    },
    {
      "inputs": [
        {
          "internalType": "address",
          "name": "to",
          "type": "address"
        },
        {
          "internalType": "uint256",
          "name": "tokenId",
          "type": "uint256"
        }
      ],
      "name": "approve",
      "outputs": [],
      "stateMutability": "nonpayable",
      "type": "function"
    },
    {
      "inputs": [
        {
          "internalType": "address",
          "name": "owner",
          "type": "address"
        }
      ],
      "name": "balanceOf",
      "outputs": [
        {
          "internalType": "uint256",
          "name": "",
          "type": "uint256"
        }
      ],
      "stateMutability": "view",
      "type": "function"
    },
    {
      "inputs": [
        {
          "internalType": "uint256",
          "name": "tokenId",
          "type": "uint256"
        }
      ],
      "name": "getApproved",
      "outputs": [
        {
          "internalType": "address",
          "name": "",
          "type": "address"
        }
      ],
      "stateMutability": "view",
      "type": "function"
    },
    {
      "inputs": [
        {
          "internalType": "uint256",
          "name": "tokenId",
          "type": "uint256"
        }
      ],
      "name": "getMaintenanceHistoryCount",
      "outputs": [
        {
          "internalType": "uint256",
          "name": "",
          "type": "uint256"
        }
      ],
      "stateMutability": "view",
      "type": "function"
    },
    {
      "inputs": [
        {
          "internalType": "uint256",
          "name": "tokenId",
          "type": "uint256"
        },
        {
          "internalType": "uint256",
          "name": "index",
          "type": "uint256"
        }
      ],
      "name": "getMaintenanceRecord",
      "outputs": [
        {
          "components": [
            {
              "internalType": "uint256",
              "name": "timestamp",
              "type": "uint256"
            },
            {
              "internalType": "string",
              "name": "ipfsHash",
              "type": "string"
            },
            {
              "internalType": "uint256",
              "name": "mileage",
              "type": "uint256"
            },
            {
              "internalType": "string",
              "name": "description",
              "type": "string"
            },
            {
              "internalType": "address",
              "name": "technician",
              "type": "address"
            }
          ],
          "internalType": "struct OzcarNFT.MaintenanceRecord",
          "name": "",
          "type": "tuple"
        }
      ],
      "stateMutability": "view",
      "type": "function"
    },
    {
      "inputs": [
        {
          "internalType": "address",
          "name": "owner",
          "type": "address"
        },
        {
          "internalType": "address",
          "name": "operator",
          "type": "address"
        }
      ],
      "name": "isApprovedForAll",
      "outputs": [
        {
          "internalType": "bool",
          "name": "",
          "type": "bool"
        }
      ],
      "stateMutability": "view",
      "type": "function"
    },
    {
      "inputs": [
        {
          "internalType": "uint256",
          "name": "",
          "type": "uint256"
        },
        {
          "internalType": "uint256",
          "name": "",
          "type": "uint256"
        }
      ],
      "name": "maintenanceHistory",
      "outputs": [
        {
          "internalType": "uint256",
          "name": "timestamp",
          "type": "uint256"
        },
        {
          "internalType": "string",
          "name": "ipfsHash",
          "type": "string"
        },
        {
          "internalType": "uint256",
          "name": "mileage",
          "type": "uint256"
        },
        {
          "internalType": "string",
          "name": "description",
          "type": "string"
        },
        {
          "internalType": "address",
          "name": "technician",
          "type": "address"
        }
      ],
      "stateMutability": "view",
      "type": "function"
    },
    {
      "inputs": [],
      "name": "name",
      "outputs": [
        {
          "internalType": "string",
          "name": "",
          "type": "string"
        }
      ],
      "stateMutability": "view",
      "type": "function"
    },
    {
      "inputs": [],
      "name": "owner",
      "outputs": [
        {
          "internalType": "address",
          "name": "",
          "type": "address"
        }
      ],
      "stateMutability": "view",
      "type": "function"
    },
    {
      "inputs": [
        {
          "internalType": "uint256",
          "name": "tokenId",
          "type": "uint256"
        }
      ],
      "name": "ownerOf",
      "outputs": [
        {
          "internalType": "address",
          "name": "",
          "type": "address"
        }
      ],
      "stateMutability": "view",
      "type": "function"
    },
    {
      "inputs": [
        {
          "internalType": "address",
          "name": "to",
          "type": "address"
        },
        {
          "internalType": "string",
          "name": "vin",
          "type": "string"
        },
        {
          "internalType": "string",
          "name": "tokenURI",
          "type": "string"
        }
      ],
      "name": "registerVehicle",
      "outputs": [
        {
          "internalType": "uint256",
          "name": "",
          "type": "uint256"
        }
      ],
      "stateMutability": "nonpayable",
      "type": "function"
    },
    {
      "inputs": [],
      "name": "renounceOwnership",
      "outputs": [],
      "stateMutability": "nonpayable",
      "type": "function"
    },
    {
      "inputs": [
        {
          "internalType": "address",
          "name": "from",
          "type": "address"
        },
        {
          "internalType": "address",
          "name": "to",
          "type": "address"
        },
        {
          "internalType": "uint256",
          "name": "tokenId",
          "type": "uint256"
        }
      ],
      "name": "safeTransferFrom",
      "outputs": [],
      "stateMutability": "nonpayable",
      "type": "function"
    },
    {
      "inputs": [
        {
          "internalType": "address",
          "name": "from",
          "type": "address"
        },
        {
          "internalType": "address",
          "name": "to",
          "type": "address"
        },
        {
          "internalType": "uint256",
          "name": "tokenId",
          "type": "uint256"
        },
        {
          "internalType": "bytes",
          "name": "data",
          "type": "bytes"
        }
      ],
      "name": "safeTransferFrom",
      "outputs": [],
      "stateMutability": "nonpayable",
      "type": "function"
    },
    {
      "inputs": [
        {
          "internalType": "address",
          "name": "operator",
          "type": "address"
        },
        {
          "internalType": "bool",
          "name": "approved",
          "type": "bool"
        }
      ],
      "name": "setApprovalForAll",
      "outputs": [],
      "stateMutability": "nonpayable",
      "type": "function"
    },
    {
      "inputs": [
        {
          "internalType": "bytes4",
          "name": "interfaceId",
          "type": "bytes4"
        }
      ],
      "name": "supportsInterface",
      "outputs": [
        {
          "internalType": "bool",
          "name": "",
          "type": "bool"
        }
      ],
      "stateMutability": "view",
      "type": "function"
    },
    {
      "inputs": [],
      "name": "symbol",
      "outputs": [
        {
          "internalType": "string",
          "name": "",
          "type": "string"
        }
      ],
      "stateMutability": "view",
      "type": "function"
    },
    {
      "inputs": [
        {
          "internalType": "uint256",
          "name": "",
          "type": "uint256"
        }
      ],
      "name": "tokenIdToVinHash",
      "outputs": [
        {
          "internalType": "bytes32",
          "name": "",
          "type": "bytes32"
        }
      ],
      "stateMutability": "view",
      "type": "function"
    },
    {
      "inputs": [
        {
          "internalType": "uint256",
          "name": "tokenId",
          "type": "uint256"
        }
      ],
      "name": "tokenURI",
      "outputs": [
        {
          "internalType": "string",
          "name": "",
          "type": "string"
        }
      ],
      "stateMutability": "view",
      "type": "function"
    },
    {
      "inputs": [
        {
          "internalType": "address",
          "name": "from",
          "type": "address"
        },
        {
          "internalType": "address",
          "name": "to",
          "type": "address"
        },
        {
          "internalType": "uint256",
          "name": "tokenId",
          "type": "uint256"
        }
      ],
      "name": "transferFrom",
      "outputs": [],
      "stateMutability": "nonpayable",
      "type": "function"
    },
    {
      "inputs": [
        {
          "internalType": "address",
          "name": "newOwner",
          "type": "address"
        }
      ],
      "name": "transferOwnership",
      "outputs": [],
      "stateMutability": "nonpayable",
      "type": "function"
    }
  ],
  "bytecode": "0x60806040523480156200001157600080fd5b506040516200388b3803806200388b833981810160405281019062000037919062000288565b806040518060400160405280600c81526020017f4f7a63617256656869636c6500000000000000000000000000000000000000008152506040518060400160405280600581526020017f4f5a4341520000000000000000000000000000000000000000000000000000008152508160009081620000b5919062000534565b508060019081620000c7919062000534565b505050600073ffffffffffffffffffffffffffffffffffffffff168173ffffffffffffffffffffffffffffffffffffffff16036200013f5760006040517f1e4fbdf70000000000000000000000000000000000000000000000000000000081526004016200013691906200062c565b60405180910390fd5b62000150816200015860201b60201c565b505062000649565b6000600760009054906101000a900473ffffffffffffffffffffffffffffffffffffffff16905081600760006101000a81548173ffffffffffffffffffffffffffffffffffffffff021916908373ffffffffffffffffffffffffffffffffffffffff1602179055508173ffffffffffffffffffffffffffffffffffffffff168173ffffffffffffffffffffffffffffffffffffffff167f8be0079c531659141344cd1fd0a4f28419497f9722a3daafe3b4186f6b6457e060405160405180910390a35050565b600080fd5b600073ffffffffffffffffffffffffffffffffffffffff82169050919050565b6000620002508262000223565b9050919050565b620002628162000243565b81146200026e57600080fd5b50565b600081519050620002828162000257565b92915050565b600060208284031215620002a157620002a06200021e565b5b6000620002b18482850162000271565b91505092915050565b600081519050919050565b7f4e487b7100000000000000000000000000000000000000000000000000000000600052604160045260246000fd5b7f4e487b7100000000000000000000000000000000000000000000000000000000600052602260045260246000fd5b600060028204905060018216806200033c57607f821691505b602082108103620003525762000351620002f4565b5b50919050565b60008190508160005260206000209050919050565b60006020601f8301049050919050565b600082821b905092915050565b600060088302620003bc7fffffffffffffffffffffffffffffffffffffffffffffffffffffffffffffffff826200037d565b620003c886836200037d565b95508019841693508086168417925050509392505050565b6000819050919050565b6000819050919050565b6000620004156200040f6200040984620003e0565b620003ea565b620003e0565b9050919050565b6000819050919050565b6200043183620003f4565b6200044962000440826200041c565b8484546200038a565b825550505050565b600090565b6200046062000451565b6200046d81848462000426565b505050565b5b8181101562000495576200048960008262000456565b60018101905062000473565b5050565b601f821115620004e457620004ae8162000358565b620004b9846200036d565b81016020851015620004c9578190505b620004e1620004d8856200036d565b83018262000472565b50505b505050565b600082821c905092915050565b60006200050960001984600802620004e9565b1980831691505092915050565b6000620005248383620004f6565b9150826002028217905092915050565b6200053f82620002ba565b67ffffffffffffffff8111156200055b576200055a620002c5565b5b62000567825462000323565b6200057482828562000499565b600060209050601f831160018114620005ac576000841562000597578287015190505b620005a3858262000516565b86555062000613565b601f198416620005bc8662000358565b60005b82811015620005e657848901518255600182019150602085019450602081019050620005bf565b8683101562000606578489015162000602601f891682620004f6565b8355505b6001600288020188555050505b505050505050565b620006268162000243565b82525050565b60006020820190506200064360008301846200061b565b92915050565b61323280620006596000396000f3fe608060405234801561001057600080fd5b50600436106101425760003560e01c8063a22cb465116100b8578063cc6168fc1161007c578063cc6168fc14610373578063ccf8a1dd146103a3578063e985e9c5146103d3578063f2fde38b14610403578063fa5675541461041f578063fae776751461044f57610142565b8063a22cb465146102bf578063acf7e8e5146102db578063b88d4fde146102f7578063c78dcb6114610313578063c87b56dd1461034357610142565b806342842e0e1161010a57806342842e0e146101fd5780636352211e1461021957806370a0823114610249578063715018a6146102795780638da5cb5b1461028357806395d89b41146102a157610142565b806301ffc9a71461014757806306fdde0314610177578063081812fc14610195578063095ea7b3146101c557806323b872dd146101e1575b600080fd5b610161600480360381019061015c919061224e565b610483565b60405161016e9190612296565b60405180910390f35b61017f6104e4565b60405161018c9190612341565b60405180910390f35b6101af60048036038101906101aa9190612399565b610576565b6040516101bc9190612407565b60405180910390f35b6101df60048036038101906101da919061244e565b610592565b005b6101fb60048036038101906101f6919061248e565b6105a8565b005b6102176004803603810190610212919061248e565b6106aa565b005b610233600480360381019061022e9190612399565b6106ca565b6040516102409190612407565b60405180910390f35b610263600480360381019061025e91906124e1565b6106dc565b604051610270919061251d565b60405180910390f35b610281610796565b005b61028b6107aa565b6040516102989190612407565b60405180910390f35b6102a96107d4565b6040516102b69190612341565b60405180910390f35b6102d960048036038101906102d49190612564565b610866565b005b6102f560048036038101906102f091906126d9565b61087c565b005b610311600480360381019061030c919061282d565b610a36565b005b61032d600480360381019061032891906128b0565b610a5b565b60405161033a91906129d5565b60405180910390f35b61035d60048036038101906103589190612399565b610c37565b60405161036a9190612341565b60405180910390f35b61038d600480360381019061038891906129f7565b610d4a565b60405161039a919061251d565b60405180910390f35b6103bd60048036038101906103b89190612399565b610e99565b6040516103ca9190612a9b565b60405180910390f35b6103ed60048036038101906103e89190612ab6565b610eb1565b6040516103fa9190612296565b60405180910390f35b61041d600480360381019061041891906124e1565b610f45565b005b61043960048036038101906104349190612399565b610fcb565b604051610446919061251d565b60405180910390f35b610469600480360381019061046491906128b0565b610feb565b60405161047a959493929190612af6565b60405180910390f35b6000634906490660e01b7bffffffffffffffffffffffffffffffffffffffffffffffffffffffff1916827bffffffffffffffffffffffffffffffffffffffffffffffffffffffff191614806104dd57506104dc8261116e565b5b9050919050565b6060600080546104f390612b86565b80601f016020809104026020016040519081016040528092919081815260200182805461051f90612b86565b801561056c5780601f106105415761010080835404028352916020019161056c565b820191906000526020600020905b81548152906001019060200180831161054f57829003601f168201915b5050505050905090565b600061058182611250565b5061058b826112d8565b9050919050565b6105a4828261059f611315565b61131d565b5050565b600073ffffffffffffffffffffffffffffffffffffffff168273ffffffffffffffffffffffffffffffffffffffff160361061a5760006040517f64a0ae920000000000000000000000000000000000000000000000000000000081526004016106119190612407565b60405180910390fd5b600061062e8383610629611315565b61132f565b90508373ffffffffffffffffffffffffffffffffffffffff168173ffffffffffffffffffffffffffffffffffffffff16146106a4578382826040517f64283d7b00000000000000000000000000000000000000000000000000000000815260040161069b93929190612bb7565b60405180910390fd5b50505050565b6106c583838360405180602001604052806000815250610a36565b505050565b60006106d582611250565b9050919050565b60008073ffffffffffffffffffffffffffffffffffffffff168273ffffffffffffffffffffffffffffffffffffffff160361074f5760006040517f89c62b640000000000000000000000000000000000000000000000000000000081526004016107469190612407565b60405180910390fd5b600360008373ffffffffffffffffffffffffffffffffffffffff1673ffffffffffffffffffffffffffffffffffffffff168152602001908152602001600020549050919050565b61079e611549565b6107a860006115d0565b565b6000600760009054906101000a900473ffffffffffffffffffffffffffffffffffffffff16905090565b6060600180546107e390612b86565b80601f016020809104026020016040519081016040528092919081815260200182805461080f90612b86565b801561085c5780601f106108315761010080835404028352916020019161085c565b820191906000526020600020905b81548152906001019060200180831161083f57829003601f168201915b5050505050905090565b610878610871611315565b8383611696565b5050565b600073ffffffffffffffffffffffffffffffffffffffff1661089d866106ca565b73ffffffffffffffffffffffffffffffffffffffff16036108f3576040517f08c379a00000000000000000000000000000000000000000000000000000000081526004016108ea90612c3a565b60405180910390fd5b600b60008681526020019081526020016000206040518060a001604052804281526020018681526020018581526020018481526020018373ffffffffffffffffffffffffffffffffffffffff16815250908060018154018082558091505060019003906000526020600020906005020160009091909190915060008201518160000155602082015181600101908161098b9190612e06565b506040820151816002015560608201518160030190816109ab9190612e06565b5060808201518160040160006101000a81548173ffffffffffffffffffffffffffffffffffffffff021916908373ffffffffffffffffffffffffffffffffffffffff1602179055505050847f177a8e29fc20ab94060798de3cf496b59e04bb2ceff74d8ad84b652f007c325a8585604051610a27929190612ed8565b60405180910390a25050505050565b610a418484846105a8565b610a55610a4c611315565b85858585611805565b50505050565b610a6361219d565b600b60008481526020019081526020016000208281548110610a8857610a87612f08565b5b90600052602060002090600502016040518060a001604052908160008201548152602001600182018054610abb90612b86565b80601f0160208091040260200160405190810160405280929190818152602001828054610ae790612b86565b8015610b345780601f10610b0957610100808354040283529160200191610b34565b820191906000526020600020905b815481529060010190602001808311610b1757829003601f168201915b5050505050815260200160028201548152602001600382018054610b5790612b86565b80601f0160208091040260200160405190810160405280929190818152602001828054610b8390612b86565b8015610bd05780601f10610ba557610100808354040283529160200191610bd0565b820191906000526020600020905b815481529060010190602001808311610bb357829003601f168201915b505050505081526020016004820160009054906101000a900473ffffffffffffffffffffffffffffffffffffffff1673ffffffffffffffffffffffffffffffffffffffff1673ffffffffffffffffffffffffffffffffffffffff1681525050905092915050565b6060610c4282611250565b506000600660008481526020019081526020016000208054610c6390612b86565b80601f0160208091040260200160405190810160405280929190818152602001828054610c8f90612b86565b8015610cdc5780601f10610cb157610100808354040283529160200191610cdc565b820191906000526020600020905b815481529060010190602001808311610cbf57829003601f168201915b505050505090506000610ced6119b6565b90506000815103610d02578192505050610d45565b600082511115610d37578082604051602001610d1f929190612f73565b60405160208183030381529060405292505050610d45565b610d40846119cd565b925050505b919050565b6000610d54611549565b600083604051602001610d679190612f97565b604051602081830303815290604052805190602001209050600a600082815260200190815260200160002060009054906101000a900460ff1615610de0576040517f08c379a0000000000000000000000000000000000000000000000000000000008152600401610dd790612ffa565b60405180910390fd5b600060086000815480929190610df590613049565b919050559050610e058682611a36565b610e0f8185611b2f565b8160096000838152602001908152602001600020819055506001600a600084815260200190815260200160002060006101000a81548160ff021916908315150217905550807f681e6c277e239927653ae7c8c09c8ab0559c21cac64e5c68f894bc5433dcfee88688604051610e85929190613091565b60405180910390a280925050509392505050565b60096020528060005260406000206000915090505481565b6000600560008473ffffffffffffffffffffffffffffffffffffffff1673ffffffffffffffffffffffffffffffffffffffff16815260200190815260200160002060008373ffffffffffffffffffffffffffffffffffffffff1673ffffffffffffffffffffffffffffffffffffffff16815260200190815260200160002060009054906101000a900460ff16905092915050565b610f4d611549565b600073ffffffffffffffffffffffffffffffffffffffff168173ffffffffffffffffffffffffffffffffffffffff1603610fbf5760006040517f1e4fbdf7000000000000000000000000000000000000000000000000000000008152600401610fb69190612407565b60405180910390fd5b610fc8816115d0565b50565b6000600b6000838152602001908152602001600020805490509050919050565b600b602052816000526040600020818154811061100757600080fd5b90600052602060002090600502016000915091505080600001549080600101805461103190612b86565b80601f016020809104026020016040519081016040528092919081815260200182805461105d90612b86565b80156110aa5780601f1061107f576101008083540402835291602001916110aa565b820191906000526020600020905b81548152906001019060200180831161108d57829003601f168201915b5050505050908060020154908060030180546110c590612b86565b80601f01602080910402602001604051908101604052809291908181526020018280546110f190612b86565b801561113e5780601f106111135761010080835404028352916020019161113e565b820191906000526020600020905b81548152906001019060200180831161112157829003601f168201915b5050505050908060040160009054906101000a900473ffffffffffffffffffffffffffffffffffffffff16905085565b60007f80ac58cd000000000000000000000000000000000000000000000000000000007bffffffffffffffffffffffffffffffffffffffffffffffffffffffff1916827bffffffffffffffffffffffffffffffffffffffffffffffffffffffff1916148061123957507f5b5e139f000000000000000000000000000000000000000000000000000000007bffffffffffffffffffffffffffffffffffffffffffffffffffffffff1916827bffffffffffffffffffffffffffffffffffffffffffffffffffffffff1916145b80611249575061124882611b8b565b5b9050919050565b60008061125c83611bf5565b9050600073ffffffffffffffffffffffffffffffffffffffff168173ffffffffffffffffffffffffffffffffffffffff16036112cf57826040517f7e2732890000000000000000000000000000000000000000000000000000000081526004016112c6919061251d565b60405180910390fd5b80915050919050565b60006004600083815260200190815260200160002060009054906101000a900473ffffffffffffffffffffffffffffffffffffffff169050919050565b600033905090565b61132a8383836001611c32565b505050565b60008061133b84611bf5565b9050600073ffffffffffffffffffffffffffffffffffffffff168373ffffffffffffffffffffffffffffffffffffffff161461137d5761137c818486611df7565b5b600073ffffffffffffffffffffffffffffffffffffffff168173ffffffffffffffffffffffffffffffffffffffff161461140e576113bf600085600080611c32565b6001600360008373ffffffffffffffffffffffffffffffffffffffff1673ffffffffffffffffffffffffffffffffffffffff168152602001908152602001600020600082825403925050819055505b600073ffffffffffffffffffffffffffffffffffffffff168573ffffffffffffffffffffffffffffffffffffffff1614611491576001600360008773ffffffffffffffffffffffffffffffffffffffff1673ffffffffffffffffffffffffffffffffffffffff168152602001908152602001600020600082825401925050819055505b846002600086815260200190815260200160002060006101000a81548173ffffffffffffffffffffffffffffffffffffffff021916908373ffffffffffffffffffffffffffffffffffffffff160217905550838573ffffffffffffffffffffffffffffffffffffffff168273ffffffffffffffffffffffffffffffffffffffff167fddf252ad1be2c89b69c2b068fc378daa952ba7f163c4a11628f55a4df523b3ef60405160405180910390a4809150509392505050565b611551611315565b73ffffffffffffffffffffffffffffffffffffffff1661156f6107aa565b73ffffffffffffffffffffffffffffffffffffffff16146115ce57611592611315565b6040517f118cdaa70000000000000000000000000000000000000000000000000000000081526004016115c59190612407565b60405180910390fd5b565b6000600760009054906101000a900473ffffffffffffffffffffffffffffffffffffffff16905081600760006101000a81548173ffffffffffffffffffffffffffffffffffffffff021916908373ffffffffffffffffffffffffffffffffffffffff1602179055508173ffffffffffffffffffffffffffffffffffffffff168173ffffffffffffffffffffffffffffffffffffffff167f8be0079c531659141344cd1fd0a4f28419497f9722a3daafe3b4186f6b6457e060405160405180910390a35050565b600073ffffffffffffffffffffffffffffffffffffffff168273ffffffffffffffffffffffffffffffffffffffff160361170757816040517f5b08ba180000000000000000000000000000000000000000000000000000000081526004016116fe9190612407565b60405180910390fd5b80600560008573ffffffffffffffffffffffffffffffffffffffff1673ffffffffffffffffffffffffffffffffffffffff16815260200190815260200160002060008473ffffffffffffffffffffffffffffffffffffffff1673ffffffffffffffffffffffffffffffffffffffff16815260200190815260200160002060006101000a81548160ff0219169083151502179055508173ffffffffffffffffffffffffffffffffffffffff168373ffffffffffffffffffffffffffffffffffffffff167f17307eab39ab6107e8899845ad3d59bd9653f200f220920489ca2b5937696c31836040516117f89190612296565b60405180910390a3505050565b60008373ffffffffffffffffffffffffffffffffffffffff163b11156119af578273ffffffffffffffffffffffffffffffffffffffff1663150b7a02868685856040518563ffffffff1660e01b81526004016118649493929190613116565b6020604051808303816000875af19250505080156118a057506040513d601f19601f8201168201806040525081019061189d9190613177565b60015b611924573d80600081146118d0576040519150601f19603f3d011682016040523d82523d6000602084013e6118d5565b606091505b50600081510361191c57836040517f64a0ae920000000000000000000000000000000000000000000000000000000081526004016119139190612407565b60405180910390fd5b805160208201fd5b63150b7a0260e01b7bffffffffffffffffffffffffffffffffffffffffffffffffffffffff1916817bffffffffffffffffffffffffffffffffffffffffffffffffffffffff1916146119ad57836040517f64a0ae920000000000000000000000000000000000000000000000000000000081526004016119a49190612407565b60405180910390fd5b505b5050505050565b606060405180602001604052806000815250905090565b60606119d882611250565b5060006119e36119b6565b90506000815111611a035760405180602001604052806000815250611a2e565b80611a0d84611ebb565b604051602001611a1e929190612f73565b6040516020818303038152906040525b915050919050565b600073ffffffffffffffffffffffffffffffffffffffff168273ffffffffffffffffffffffffffffffffffffffff1603611aa85760006040517f64a0ae92000000000000000000000000000000000000000000000000000000008152600401611a9f9190612407565b60405180910390fd5b6000611ab68383600061132f565b9050600073ffffffffffffffffffffffffffffffffffffffff168173ffffffffffffffffffffffffffffffffffffffff1614611b2a5760006040517f73c6ac6e000000000000000000000000000000000000000000000000000000008152600401611b219190612407565b60405180910390fd5b505050565b80600660008481526020019081526020016000209081611b4f9190612e06565b507ff8e1a15aba9398e019f0b49df1a4fde98ee17ae345cb5f6b5e2c27f5033e8ce782604051611b7f919061251d565b60405180910390a15050565b60007f01ffc9a7000000000000000000000000000000000000000000000000000000007bffffffffffffffffffffffffffffffffffffffffffffffffffffffff1916827bffffffffffffffffffffffffffffffffffffffffffffffffffffffff1916149050919050565b60006002600083815260200190815260200160002060009054906101000a900473ffffffffffffffffffffffffffffffffffffffff169050919050565b8080611c6b5750600073ffffffffffffffffffffffffffffffffffffffff168273ffffffffffffffffffffffffffffffffffffffff1614155b15611d9f576000611c7b84611250565b9050600073ffffffffffffffffffffffffffffffffffffffff168373ffffffffffffffffffffffffffffffffffffffff1614158015611ce657508273ffffffffffffffffffffffffffffffffffffffff168173ffffffffffffffffffffffffffffffffffffffff1614155b8015611cf95750611cf78184610eb1565b155b15611d3b57826040517fa9fbf51f000000000000000000000000000000000000000000000000000000008152600401611d329190612407565b60405180910390fd5b8115611d9d57838573ffffffffffffffffffffffffffffffffffffffff168273ffffffffffffffffffffffffffffffffffffffff167f8c5be1e5ebec7d5bd14f71427d1e84f3dd0314c0f7b2291e5b200ac8c7c3b92560405160405180910390a45b505b836004600085815260200190815260200160002060006101000a81548173ffffffffffffffffffffffffffffffffffffffff021916908373ffffffffffffffffffffffffffffffffffffffff16021790555050505050565b611e02838383611f89565b611eb657600073ffffffffffffffffffffffffffffffffffffffff168373ffffffffffffffffffffffffffffffffffffffff1603611e7757806040517f7e273289000000000000000000000000000000000000000000000000000000008152600401611e6e919061251d565b60405180910390fd5b81816040517f177e802f000000000000000000000000000000000000000000000000000000008152600401611ead9291906131a4565b60405180910390fd5b505050565b606060006001611eca8461204a565b01905060008167ffffffffffffffff811115611ee957611ee86125ae565b5b6040519080825280601f01601f191660200182016040528015611f1b5781602001600182028036833780820191505090505b509050600082602083010190505b600115611f7e578080600190039150507f3031323334353637383961626364656600000000000000000000000000000000600a86061a8153600a8581611f7257611f716131cd565b5b04945060008503611f29575b819350505050919050565b60008073ffffffffffffffffffffffffffffffffffffffff168373ffffffffffffffffffffffffffffffffffffffff161415801561204157508273ffffffffffffffffffffffffffffffffffffffff168473ffffffffffffffffffffffffffffffffffffffff16148061200257506120018484610eb1565b5b8061204057508273ffffffffffffffffffffffffffffffffffffffff16612028836112d8565b73ffffffffffffffffffffffffffffffffffffffff16145b5b90509392505050565b600080600090507a184f03e93ff9f4daa797ed6e38ed64bf6a1f01000000000000000083106120a8577a184f03e93ff9f4daa797ed6e38ed64bf6a1f010000000000000000838161209e5761209d6131cd565b5b0492506040810190505b6d04ee2d6d415b85acef810000000083106120e5576d04ee2d6d415b85acef810000000083816120db576120da6131cd565b5b0492506020810190505b662386f26fc10000831061211457662386f26fc10000838161210a576121096131cd565b5b0492506010810190505b6305f5e100831061213d576305f5e1008381612133576121326131cd565b5b0492506008810190505b6127108310612162576127108381612158576121576131cd565b5b0492506004810190505b60648310612185576064838161217b5761217a6131cd565b5b0492506002810190505b600a8310612194576001810190505b80915050919050565b6040518060a0016040528060008152602001606081526020016000815260200160608152602001600073ffffffffffffffffffffffffffffffffffffffff1681525090565b6000604051905090565b600080fd5b600080fd5b60007fffffffff0000000000000000000000000000000000000000000000000000000082169050919050565b61222b816121f6565b811461223657600080fd5b50565b60008135905061224881612222565b92915050565b600060208284031215612264576122636121ec565b5b600061227284828501612239565b91505092915050565b60008115159050919050565b6122908161227b565b82525050565b60006020820190506122ab6000830184612287565b92915050565b600081519050919050565b600082825260208201905092915050565b60005b838110156122eb5780820151818401526020810190506122d0565b60008484015250505050565b6000601f19601f8301169050919050565b6000612313826122b1565b61231d81856122bc565b935061232d8185602086016122cd565b612336816122f7565b840191505092915050565b6000602082019050818103600083015261235b8184612308565b905092915050565b6000819050919050565b61237681612363565b811461238157600080fd5b50565b6000813590506123938161236d565b92915050565b6000602082840312156123af576123ae6121ec565b5b60006123bd84828501612384565b91505092915050565b600073ffffffffffffffffffffffffffffffffffffffff82169050919050565b60006123f1826123c6565b9050919050565b612401816123e6565b82525050565b600060208201905061241c60008301846123f8565b92915050565b61242b816123e6565b811461243657600080fd5b50565b60008135905061244881612422565b92915050565b60008060408385031215612465576124646121ec565b5b600061247385828601612439565b925050602061248485828601612384565b9150509250929050565b6000806000606084860312156124a7576124a66121ec565b5b60006124b586828701612439565b93505060206124c686828701612439565b92505060406124d786828701612384565b9150509250925092565b6000602082840312156124f7576124f66121ec565b5b600061250584828501612439565b91505092915050565b61251781612363565b82525050565b6000602082019050612532600083018461250e565b92915050565b6125418161227b565b811461254c57600080fd5b50565b60008135905061255e81612538565b92915050565b6000806040838503121561257b5761257a6121ec565b5b600061258985828601612439565b925050602061259a8582860161254f565b9150509250929050565b600080fd5b600080fd5b7f4e487b7100000000000000000000000000000000000000000000000000000000600052604160045260246000fd5b6125e6826122f7565b810181811067ffffffffffffffff82111715612605576126046125ae565b5b80604052505050565b60006126186121e2565b905061262482826125dd565b919050565b600067ffffffffffffffff821115612644576126436125ae565b5b61264d826122f7565b9050602081019050919050565b82818337600083830152505050565b600061267c61267784612629565b61260e565b905082815260208101848484011115612698576126976125a9565b5b6126a384828561265a565b509392505050565b600082601f8301126126c0576126bf6125a4565b5b81356126d0848260208601612669565b91505092915050565b600080600080600060a086880312156126f5576126f46121ec565b5b600061270388828901612384565b955050602086013567ffffffffffffffff811115612724576127236121f1565b5b612730888289016126ab565b945050604061274188828901612384565b935050606086013567ffffffffffffffff811115612762576127616121f1565b5b61276e888289016126ab565b925050608061277f88828901612439565b9150509295509295909350565b600067ffffffffffffffff8211156127a7576127a66125ae565b5b6127b0826122f7565b9050602081019050919050565b60006127d06127cb8461278c565b61260e565b9050828152602081018484840111156127ec576127eb6125a9565b5b6127f784828561265a565b509392505050565b600082601f830112612814576128136125a4565b5b81356128248482602086016127bd565b91505092915050565b60008060008060808587031215612847576128466121ec565b5b600061285587828801612439565b945050602061286687828801612439565b935050604061287787828801612384565b925050606085013567ffffffffffffffff811115612898576128976121f1565b5b6128a4878288016127ff565b91505092959194509250565b600080604083850312156128c7576128c66121ec565b5b60006128d585828601612384565b92505060206128e685828601612384565b9150509250929050565b6128f981612363565b82525050565b600082825260208201905092915050565b600061291b826122b1565b61292581856128ff565b93506129358185602086016122cd565b61293e816122f7565b840191505092915050565b612952816123e6565b82525050565b600060a08301600083015161297060008601826128f0565b50602083015184820360208601526129888282612910565b915050604083015161299d60408601826128f0565b50606083015184820360608601526129b58282612910565b91505060808301516129ca6080860182612949565b508091505092915050565b600060208201905081810360008301526129ef8184612958565b905092915050565b600080600060608486031215612a1057612a0f6121ec565b5b6000612a1e86828701612439565b935050602084013567ffffffffffffffff811115612a3f57612a3e6121f1565b5b612a4b868287016126ab565b925050604084013567ffffffffffffffff811115612a6c57612a6b6121f1565b5b612a78868287016126ab565b9150509250925092565b6000819050919050565b612a9581612a82565b82525050565b6000602082019050612ab06000830184612a8c565b92915050565b60008060408385031215612acd57612acc6121ec565b5b6000612adb85828601612439565b9250506020612aec85828601612439565b9150509250929050565b600060a082019050612b0b600083018861250e565b8181036020830152612b1d8187612308565b9050612b2c604083018661250e565b8181036060830152612b3e8185612308565b9050612b4d60808301846123f8565b9695505050505050565b7f4e487b7100000000000000000000000000000000000000000000000000000000600052602260045260246000fd5b60006002820490506001821680612b9e57607f821691505b602082108103612bb157612bb0612b57565b5b50919050565b6000606082019050612bcc60008301866123f8565b612bd9602083018561250e565b612be660408301846123f8565b949350505050565b7f56656869636c6520646f6573206e6f7420657869737400000000000000000000600082015250565b6000612c246016836122bc565b9150612c2f82612bee565b602082019050919050565b60006020820190508181036000830152612c5381612c17565b9050919050565b60008190508160005260206000209050919050565b60006020601f8301049050919050565b600082821b905092915050565b600060088302612cbc7fffffffffffffffffffffffffffffffffffffffffffffffffffffffffffffffff82612c7f565b612cc68683612c7f565b95508019841693508086168417925050509392505050565b6000819050919050565b6000612d03612cfe612cf984612363565b612cde565b612363565b9050919050565b6000819050919050565b612d1d83612ce8565b612d31612d2982612d0a565b848454612c8c565b825550505050565b600090565b612d46612d39565b612d51818484612d14565b505050565b5b81811015612d7557612d6a600082612d3e565b600181019050612d57565b5050565b601f821115612dba57612d8b81612c5a565b612d9484612c6f565b81016020851015612da3578190505b612db7612daf85612c6f565b830182612d56565b50505b505050565b600082821c905092915050565b6000612ddd60001984600802612dbf565b1980831691505092915050565b6000612df68383612dcc565b9150826002028217905092915050565b612e0f826122b1565b67ffffffffffffffff811115612e2857612e276125ae565b5b612e328254612b86565b612e3d828285612d79565b600060209050601f831160018114612e705760008415612e5e578287015190505b612e688582612dea565b865550612ed0565b601f198416612e7e86612c5a565b60005b82811015612ea657848901518255600182019150602085019450602081019050612e81565b86831015612ec35784890151612ebf601f891682612dcc565b8355505b6001600288020188555050505b505050505050565b60006040820190508181036000830152612ef28185612308565b9050612f01602083018461250e565b9392505050565b7f4e487b7100000000000000000000000000000000000000000000000000000000600052603260045260246000fd5b600081905092915050565b6000612f4d826122b1565b612f578185612f37565b9350612f678185602086016122cd565b80840191505092915050565b6000612f7f8285612f42565b9150612f8b8284612f42565b91508190509392505050565b6000612fa38284612f42565b915081905092915050565b7f56494e20616c7265616479207265676973746572656400000000000000000000600082015250565b6000612fe46016836122bc565b9150612fef82612fae565b602082019050919050565b6000602082019050818103600083015261301381612fd7565b9050919050565b7f4e487b7100000000000000000000000000000000000000000000000000000000600052601160045260246000fd5b600061305482612363565b91507fffffffffffffffffffffffffffffffffffffffffffffffffffffffffffffffff82036130865761308561301a565b5b600182019050919050565b600060408201905081810360008301526130ab8185612308565b90506130ba60208301846123f8565b9392505050565b600081519050919050565b600082825260208201905092915050565b60006130e8826130c1565b6130f281856130cc565b93506131028185602086016122cd565b61310b816122f7565b840191505092915050565b600060808201905061312b60008301876123f8565b61313860208301866123f8565b613145604083018561250e565b818103606083015261315781846130dd565b905095945050505050565b60008151905061317181612222565b92915050565b60006020828403121561318d5761318c6121ec565b5b600061319b84828501613162565b91505092915050565b60006040820190506131b960008301856123f8565b6131c6602083018461250e565b9392505050565b7f4e487b7100000000000000000000000000000000000000000000000000000000600052601260045260246000fdfea2646970667358221220406aabc681ad371096042b149ba068371c3272ba644724929a1168f52696c72264736f6c63430008140033",
  "linkReferences": {},
  "deployedLinkReferences": {}
}